S01500006C6162622033206661737420332E737265630A
S11300000C942E000C944B000C944B000C94450162
S11300100C944B000C944B000C944B000C946F010B
S11300200C944B000C944B000C944B000C944B0020
S11300300C944B000C944B000C944B000C944B0010
S11300400C944B000C944B000C944B000C944B0000
S11300500C944B000C944B000C944B0011241FBEC9
S1130060CFEFD4E0DEBFCDBF11E0A0E0B1E0E6EC1D
S1130070F5E002C005900D92AE31B107D9F723E047
S1130080AEE1B1E001C01D92A734B207E1F70E94CE
S113009015010C94E1020C940000E4EEF0E0808180
S11300A08068808387EB8093E500E7EEF0E0808151
S11300B08F60808387E08093E60008956630710541
S11300C0B8F58A3048F4E82FF0E0EE0FFF1FE05057
S11300D0FF4F4081518102C040E050E060FF03C007
S11300E0AFE0B4E002C0A0EFB0E075956795FB0106
S11300F0E451FF4F20E030E018C0842F8F7090E06F
S11301000B2E02C0880F991F0A94E2F790819A235C
S1130110892B8083559547955595479555954795D2
S11301205595479535962F5F3F4F243031052CF375
S113013008958F929F92AF92BF92CF92DF92EF92E7
S1130140FF92CF93DF934B015C01EA0124E630E098
S113015040E050E00E945F020F2EFAE0CF2ED12C37
S1130160E12CF12CF02DA70196010E945F02822F51
S1130170BE010E945E002196C501B401A70196014B
S11301800E945F02862FBE010E945E00DF91CF9124
S1130190FF90EF90DF90CF90BF90AF909F908F90A3
S11301A0089580911E0190911F01892B49F042E02E
S11301B050E068E570E080E090E00E94990008C09B
S11301C042E050E06DE470E080E090E00E9499002D
S11301D080911E0190911F018095909590931F012D
S11301E080931E0108958091200190912101892B13
S11301F049F044E050E060E570E080E090E00E9467
S1130200990008C044E050E068E070E080E090E0CD
S11302100E949900809120019091210180959095F0
S113022090932101809320010895E1E6F0E0C0E875
S1130230C08310820E944D00C5B9CDBBC0936C0031
S1130240A0E8B0E080EC8C93E1E8F0E098E19083E2
S11302508C938DE0808382E49FE090938900809367
S11302608800109285001092840082E080936F00D1
S113027063E070E083EF90E00E94FA0162E070E0D6
S113028081ED90E00E94FA01FFCF1F920F920FB60A
S11302900F9211242F933F934F935F936F937F9308
S11302A08F939F93AF93BF93EF93FF931F9B06C0CE
S11302B065E470E083EF90E00E94FA01FF91EF9112
S11302C0BF91AF919F918F917F916F915F914F916A
S11302D03F912F910F900FBE0F901F9018951F9272
S11302E00F920FB60F9211242F933F934F935F9366
S11302F06F937F938F939F93AF93BF93EF93FF93EA
S113030064EA71E081ED90E00E94FA01FF91EF91BF
S1130310BF91AF919F918F917F916F915F914F9119
S11303203F912F910F900FBE0F901F90189580E072
S113033090E015C0AC014F5F5F4F6DE6649F900184
S1130340659F300D11242D563E4F689FF001699F23
S1130350F00D1124ED56FE4F35832483CA018330FA
S1130360910544F31092DF021092DE0281E090E0E6
S113037090932301809322010895FB012081318110
S11303802115310519F4918380830895FC01358387
S11303902483FB01918380830895DC01ED91FC911A
S11303A01197309709F4FFCF248135812D933C9325
S11303B0CF010895CF93DF9300D0CDB7DEB79A83F2
S11303C0898380911A0190911B0106960E94A002D4
S11303D0892B59F489819A8190931B0180931A0186
S11303E061E070E006960E94C0020F900F90DF91CA
S11303F0CF910895EF92FF920F931F93CF93DF93C2
S113040000D0CDB7DEB77C018B01F8948091220136
S113041090912301892B11F40E9497018CE191E0C2
S11304200E94CD019A838983FC01F182E0821383C7
S113043002831582148206960E94A0020197E1F4B9
S11304407894A0911A01B0911B01ED91FC91119740
S113045012968D919C9113970995F8946CE171E033
S113046080911A0190911B010E94BD0184E291E0E8
S11304700E94CD010E94DA01E981FA8136968981D0
S11304809A8187599F4F918B808BE981FA81918F53
S1130490808F64E271E080911A0190911B010E94A7
S11304A0BD0189819A810E94DA0178940F900F909E
S11304B0DF91CF911F910F91FF90EF900895052E3A
S11304C097FB1EF400940E94760257FD07D00E9409
S11304D07E0207FC03D04EF40C94760250954095AE
S11304E0309521953F4F4F4F5F4F089590958095DC
S11304F0709561957F4F8F4F9F4F0895A1E21A2EFB
S1130500AA1BBB1BFD010DC0AA1FBB1FEE1FFF1FB3
S1130510A217B307E407F50720F0A21BB30BE40B03
S1130520F50B661F771F881F991F1A9469F760954A
S11305307095809590959B01AC01BD01CF01089504
S1130540DC012D923D924D925D926D927D928D9241
S11305509D92AD92BD92CD92DD92ED92FD920D935E
S11305601D93CD93DD93FF91EF918DB78D938EB74E
S11305708D938FB78D93ED93FD93882799270994D5
S1130580DC01CB0181309105811D2D903D904D9072
S11305905D906D907D908D909D90AD90BD90CD902F
S11305A0DD90ED90FD900D911D91CD91DD91ED913A
S11305B0FD910D90F894FEBF0FBEEDBFED91FD913E
S10905C00994F894FFCF3A
S11305C651151801111E111B500B411B411F0940E7
S11105D6511F511B500F4116101526019301A1
S9030000FC
