:100000000C942E000C944B000C944B000C944B0061
:100010000C944B000C944B000C944B000C94B202CB
:100020000C944B000C944B000C944B000C944B0024
:100030000C944B000C944B000C944B000C944B0014
:100040000C944B000C944B000C944B000C944B0004
:100050000C944B000C944B000C944B0011241FBECD
:10006000CFEFD4E0DEBFCDBF11E0A0E0B1E0E8EC1F
:10007000F6E002C005900D92AE31B107D9F723E04A
:10008000AEE1B1E001C01D92A534B207E1F70E94D4
:100090005D010C9462030C94000080918F0190919B
:1000A000900120E030E082344FE09407E4F3809147
:1000B000ED002115310561F0807F8093ED002095E2
:1000C00030951092900110928F0180E090E0EBCF7C
:1000D0008F608093ED00F3CF8FE08093EE0080E09F
:1000E00090E01F9916C0892B71F48091EE008F70FB
:1000F00099F08091EE00807F8093EE008091EE0079
:10010000806F8093EE001F99EACF81E090E01F9B03
:10011000EACF1F99E4CFE5CF8091EE008F60809306
:10012000EE008091EE008F708093EE00ECCF8A306D
:1001300080F5E82FF0E0EE0FFF1FE050FF4F208129
:10014000318160FD23C0A0EFB0E075956795FB019C
:10015000E451FF4FAF014C5E5F4F822F8F70982F9D
:100160000B2E01C0990F0A94EAF780818A23892B0C
:100170008083359527953595279535952795359520
:1001800027953596E417F50741F70895AFE0B4E0F9
:10019000DCCF20E030E0D5CFCF92DF92EF92FF921C
:1001A000CF93DF936B017C01EA0146305105E8F003
:1001B0002196C630D10538F0DF91CF91FF90EF90B6
:1001C000DF90CF900895C701B6012AE030E040E00B
:1001D00050E00E94E002862FBE01DF91CF91FF9098
:1001E000EF90DF90CF900C94970024E630E040E051
:1001F00050E00E94E0022AE030E040E050E00E943F
:10020000E002822FBE010E949700D2CF4F925F92F0
:100210006F927F928F929F92AF92BF92CF92DF9216
:10022000EF92FF926330710581059105CCF12B01AE
:100230003C0192E0892E912CA12CB12C82E08816F1
:100240009104A104B104E1F080FE20C083E0C82E37
:10025000D12CE12CF12C0DC08FEFC81AD80AE80A76
:10026000F80AC501B4010E94E002672B682B692BD4
:1002700069F09601A701C814D904EA04FB0461F7E8
:1002800040E050E0C501B4010E94CC008FEF881A15
:10029000980AA80AB80A481459046A047B0471F63B
:1002A000FF90EF90DF90CF90BF90AF909F908F9096
:1002B0007F906F905F904F90089580E880936100E9
:1002C000109261008091E40080688093E40087EBE5
:1002D0008093E5008091E7008F608093E70087E0DE
:1002E0008093E60060E070E08DE490E00E94A5015C
:1002F00061E070E08CE690E00E94A50160E375E7A4
:1003000080E090E00E940601FFCFCF93DF9300D002
:10031000CDB7DEB79A83898380911A0190911B0132
:1003200006960E942103892B29F00F900F90DF91F0
:10033000CF91089589819A8190931B0180931A012E
:1003400061E070E006960E944103CF93DF9300D0F6
:10035000CDB7DEB7F89420911E0130911F01232BF9
:1003600009F443C020911C0130911D013A83298377
:10037000232B09F480C0E981FA814481558150938F
:100380001D0140931C0191838083738362831582D6
:100390001482CF0106960E942103019709F478C0C8
:1003A000E981FA81369689819A8187599F4F918B8D
:1003B000808B938B828BE981FA8115821482E09184
:1003C0002001F0912101309711F456C0FC01848185
:1003D00095810097D9F789819A8195838483789450
:1003E0000F900F90DF91CF9108952EEF31E0309371
:1003F0009601209395012BE632E03093030220937F
:10040000020228ED32E03093700220936F021092C6
:10041000DD021092DC0220E825B92DBB20936C0090
:10042000A0E8B0E020EC2C93E1E8F0E038E1308384
:100430002C932DE0208327E831E03093890020932E
:100440008800109285001092840022E020936F00B3
:100450001092900110928F0121E030E030931F0143
:1004600020931E0120911C0130911D013A832983A4
:10047000232B09F080CFFFCF29813A8130932101CE
:100480002093200178940F900F90DF91CF910895E1
:100490007894A0911A01B0911B01ED91FC911197F4
:1004A00012968D919C9113970995F894A0911A0139
:1004B000B0911B0115961C921E921497E0911C019D
:1004C000F0911D01309711F417C0FC0184819581D2
:1004D0000097D9F7B583A4838091200190912101E1
:1004E0000097A1F0FC0124813581309321012093F4
:1004F00020010E94850154CFB0931D01A0931C01DF
:100500008091200190912101009761F7FFCFF8942D
:1005100080911A0190911B01FC0115821482A09117
:100520002001B09121011097B9F0FD0101C0F9013E
:100530002481358121153105D1F795838483149663
:100540002D913C911597CD013093210120932001ED
:100550000E94850178940895009709F4FFCF20E068
:1005600030E0F2CF1F920F920FB60F9211242F930B
:100570003F934F935F936F937F938F939F93AF932B
:10058000BF93EF93FF9380918F01909190018957D2
:100590009E4F9093900180938F010E948702FF915C
:1005A000EF91BF91AF919F918F917F916F915F91EB
:1005B0004F913F912F910F900FBE0F901F90189564
:1005C000052E97FB1EF400940E94F70257FD07D0FA
:1005D0000E94FF0207FC03D04EF40C94F7025095E2
:1005E0004095309521953F4F4F4F5F4F089590951F
:1005F0008095709561957F4F8F4F9F4F0895A1E231
:100600001A2EAA1BBB1BFD010DC0AA1FBB1FEE1F8C
:10061000FF1FA217B307E407F50720F0A21BB30BD7
:10062000E40BF50B661F771F881F991F1A9469F753
:1006300060957095809590959B01AC01BD01CF01AF
:100640000895DC012D923D924D925D926D927D92C6
:100650008D929D92AD92BD92CD92DD92ED92FD92E2
:100660000D931D93CD93DD93FF91EF918DB78D93F6
:100670008EB78D938FB78D93ED93FD938827992730
:100680000994DC01CB0181309105811D2D903D90B5
:100690004D905D906D907D908D909D90AD90BD90B2
:1006A000CD90DD90ED90FD900D911D91CD91DD915E
:1006B000ED91FD910D90F894FEBF0FBEEDBFED9151
:0806C000FD910994F894FFCFAD
:1006C80051151801111E111B500B411B411F0940E8
:0E06D800511F511B500F4116101522019101A8
:00000001FF
