:100000000C942E000C944B000C944B000C944B0061
:100010000C944B000C944B000C944B000C94180364
:100020000C944B000C944B000C944B000C944B0024
:100030000C944B000C944B000C944B000C944B0014
:100040000C944B000C944B000C944B000C944B0004
:100050000C944B000C944B000C944B0011241FBECD
:10006000CFEFD4E0DEBFCDBF11E0A0E0B1E0E2E928
:10007000F7E002C005900D92AE31B107D9F723E049
:10008000AEE1B1E001C01D92A934B207E1F70E94D0
:100090004E010C94C7030C9400008A3098F5E82FA9
:1000A000F0E0EE0FFF1FE050FF4F2081318160FD37
:1000B00026C0A0EFB0E075956795FB01E451FF4FB6
:1000C000AF014C5E5F4F822F8F70982F0B2E01C0B7
:1000D000990F0A94EAF780818A23892B80833595CA
:1000E00027953595279535952795359527953596F7
:1000F000E417F50741F78EE191E00C94DB02AFE0E5
:10010000B4E0D9CF20E030E0D2CFCF92DF92EF92AF
:10011000FF92CF93DF936B017C01EA018EE191E0C6
:100120000E949102C630D10508F121968EE191E03E
:100130000E949102C630D10538F0DF91CF91FF9037
:10014000EF90DF90CF900895C701B6012AE030E02C
:1001500040E050E00E944503862FBE01DF91CF9121
:10016000FF90EF90DF90CF900C944D00C701B60147
:1001700024E630E040E050E00E9445032AE030E011
:1001800040E050E00E944503822FBE010E944D00D6
:10019000CCCF90E0C12CD12C760183B1881F882769
:1001A000881F982B811101C011F483B1F6CF8FEF16
:1001B000C81AD80AE80AF80A44E050E0C701B601B4
:1001C0000E94850090E083B1E8CF8F929F92AF921A
:1001D000BF92CF92DF92EF92FF92CF93DF93833063
:1001E0009105B4F1EC0192E0892E912CA12CB12C57
:1001F00082E088169104A104B104E1F080FE20C0E1
:1002000083E0C82ED12CE12CF12C0DC08FEFC81A41
:10021000D80AE80AF80AC501B4010E944503672B11
:10022000682B692B69F09601A701C814D904EA0468
:10023000FB0464F340E050E0C501B4010E94850076
:100240008FEF881A980AA80AB80A8C169D0684F2BD
:10025000DF91CF91FF90EF90DF90CF90BF90AF9064
:100260009F908F900895C0E0D0E00E94CF020A973F
:10027000E4F342E050E0209751F060E070E0CB0101
:100280000E948500C095D0950E94D602EECF6BE00B
:1002900070E080E090E00E948500F4CFE1E6F0E0BD
:1002A00080E880831082E4EEF0E0808180688083C3
:1002B00087EB8093E500E7EEF0E080818F6080833C
:1002C00087E08093E60060E177E285EE90E00E94AF
:1002D000930161E070E089EC90E00E94930180E37B
:1002E00095E70E943301CF93DF9300D0CDB7DEB7FF
:1002F0009A83898380911A0190911B0106960E942E
:100300008603892B29F00F900F90DF91CF910895EC
:1003100089819A8190931B0180931A0161E070E0BA
:1003200006960E94A603CF93DF9300D0CDB7DEB729
:10033000F8942091220130912301232BD1F522E062
:1003400032E030939A01209399012FE632E0309306
:100350000702209306022CED32E0309374022093C2
:1003600073021092E1021092E00220E825B9A0E8A1
:10037000B0E020EC2C93E1E8F0E038E130832C93FE
:100380002DE0208327E831E0309389002093880016
:10039000109285001092840022E020936F0010924A
:1003A00094011092930121E030E0309323012093D7
:1003B000220120911C0130911D013A832983232BB6
:1003C000C9F1E981FA814481558150931D0140931F
:1003D0001C01918380837383628315821482CF0111
:1003E00006960E948603019791F1E981FA8136967B
:1003F00089819A8187599F4F918B808B938B828BB8
:10040000E981FA8115821482E0912401F09125019D
:10041000309711F410C0FC01848195810097D9F7C1
:1004200089819A819583848378940F900F90DF91CE
:10043000CF910895FFCF29813A81309325012093F0
:10044000240178940F900F90DF91CF9108957894C4
:10045000A0911A01B0911B01ED91FC911197129698
:100460008D919C9113970995F894A0911A01B091E0
:100470001B0115961C921E921497E0911C01F0919D
:100480001D01309711F417C0FC01848195810097FC
:10049000D9F7B583A4838091240190912501009719
:1004A000A1F0FC01248135813093250120932401A2
:1004B0000E9473019ACFB0931D01A0931C018091FB
:1004C000240190912501009761F7FFCFF894809166
:1004D0001A0190911B01FC0115821482A091240144
:1004E000B09125011097B9F0FD0101C0F9012481F7
:1004F000358121153105D1F79583848314962D918B
:100500003C911597CD0130932501209324010E9441
:10051000730178940895009709F4FFCF20E030E04C
:10052000F2CFCF93DF93DC01F8948D919C911197DA
:10053000892B41F1C0911A01D0911B011D821C82AF
:100540001296ED91FC911397309711F423C0FC01A2
:10055000848195810097D9F7D583C4838091240144
:1005600090912501009769F0FC0124813581309339
:100570002501209324010E9473017894DF91CF918B
:100580000895FFCF81E090E08D939C937894DF9164
:10059000CF9108951396DC93CE931297DFCFF89402
:1005A0008091930190919401789408951092940110
:1005B000109293010895CF93DF93FC01F894828108
:1005C0009381892B51F1C0911A01D0911B011D8299
:1005D0001C82A0912401B0912501109711F423C031
:1005E000DC0114968D919C9115970097C9F715968B
:1005F000DC93CE93149782819381009769F0DC019C
:1006000014962D913C911597338322830E94730198
:100610007894DF91CF910895FFCF11821082789462
:10062000DF91CF910895D0932501C0932401E3CFAA
:100630001F920F920FB60F9211242F933F934F9357
:100640005F936F937F938F939F93AF93BF93EF933A
:10065000FF9380919301909194010196909394015E
:10066000809393010E946602FF91EF91BF91AF9139
:100670009F918F917F916F915F914F913F912F91BA
:100680000F900FBE0F901F901895052E97FB1EF42C
:1006900000940E945C0357FD07D00E94640307FC8E
:1006A00003D04EF40C945C03509540953095219501
:1006B0003F4F4F4F5F4F089590958095709561958E
:1006C0007F4F8F4F9F4F0895A1E21A2EAA1BBB1B8D
:1006D000FD010DC0AA1FBB1FEE1FFF1FA217B3070E
:1006E000E407F50720F0A21BB30BE40BF50B661F24
:1006F000771F881F991F1A9469F7609570958095E8
:1007000090959B01AC01BD01CF010895DC012D92B4
:100710003D924D925D926D927D928D929D92AD92A1
:10072000BD92CD92DD92ED92FD920D931D93CD93EE
:10073000DD93FF91EF918DB78D938EB78D938FB72A
:100740008D93ED93FD93882799270994DC01CB01C4
:1007500081309105811D2D903D904D905D906D9063
:100760007D908D909D90AD90BD90CD90DD90ED9061
:10077000FD900D911D91CD91DD91ED91FD910D902B
:10078000F894FEBF0FBEEDBFED91FD910994F89472
:02079000FFCF99
:1007920051151801111E111B500B411B411F09401D
:0E07A200511F511B500F4116101526019501D5
:00000001FF
