:100000000C942E000C944B000C944B000C948F011C
:100010000C944B000C944B000C944B000C94B701C7
:100020000C944B000C944B000C944B000C944B0024
:100030000C944B000C944B000C944B000C944B0014
:100040000C944B000C944B000C944B000C944B0004
:100050000C944B000C944B000C944B0011241FBECD
:10006000CFEFD4E0DEBFCDBF11E0A0E0B1E0E2EE23
:10007000F6E002C005900D92AE31B107D9F723E04A
:10008000AEE1B1E001C01D92AB34B207E1F70E94CE
:1000900053010C946F030C940000E4EEF0E08081B7
:1000A0008068808387EB8093E500E7EEF0E0808155
:1000B0008F60808387E08093E60008956630710545
:1000C000B8F58A3048F4E82FF0E0EE0FFF1FE0505B
:1000D000FF4F4081518102C040E050E060FF03C00B
:1000E000AFE0B4E002C0A0EFB0E075956795FB010A
:1000F000E451FF4F20E030E018C0842F8F7090E073
:100100000B2E02C0880F991F0A94E2F790819A2360
:10011000892B8083559547955595479555954795D6
:100120005595479535962F5F3F4F243031052CF379
:1001300008958F929F92AF92BF92CF92DF92EF92EB
:10014000FF92CF93DF934B015C01EA0124E630E09C
:1001500040E050E00E94ED020F2EFAE0CF2ED12CAD
:10016000E12CF12CF02DA70196010E94ED02822FC7
:10017000BE010E945E002196C501B401A70196014F
:100180000E94ED02862FBE010E945E00DF91CF919A
:10019000FF90EF90DF90CF90BF90AF909F908F90A7
:1001A0000895C0E0D0E082E291E00E94A50220978D
:1001B00041F042E050E060E070E0CB010E94990025
:1001C00008C042E050E06BE070E080E090E00E9408
:1001D0009900C095D095E7CFC0E0D0E08EE191E0E6
:1001E0000E94A5021F99FACFBE010D2E000C880BAC
:1001F000990B44E050E00E9499002196EFCFCF92F6
:10020000DF92EF92FF92CF93DF936B017C01C2E00C
:10021000D0E009C0C701B6010E94ED02672B682B30
:10022000692B71F021969E010D2E000C440B550B8D
:100230002C153D054E055F056CF381E090E002C092
:1002400080E090E0DF91CF91FF90EF90DF90CF9032
:100250000895CF92DF92EF92FF920F931F93CF9367
:10026000DF938C01C2E0D0E012C06E010D2E000CB5
:10027000EE08FF08C701B6010E94FF00892B31F08C
:1002800040E050E0C701B6010E9499002196C017D6
:10029000D1075CF3DF91CF911F910F91FF90EF9009
:1002A000DF90CF900895E1E6F0E0C0E8C0831082CF
:1002B0000E944D00C5B9CDBBC0936C00A0E8B0E072
:1002C00080EC8C93E1E8F0E098E190838C938DE0F2
:1002D000808382E49FE0909389008093880010924D
:1002E00085001092840082E080936F0082E291E0AA
:1002F0000E94A5028EE191E00E94A50263E070E0F9
:100300008CEE90E00E94400262E070E081ED90E0AF
:100310000E94400280E395E70E942901FFCF1F92CF
:100320000F920FB60F9211242F933F934F935F9329
:100330006F937F938F939F93AF93BF93EF93FF93AD
:100340001F9904C08EE191E00E94CD02FF91EF91D0
:10035000BF91AF919F918F917F916F915F914F91DD
:100360003F912F910F900FBE0F901F9018951F92E5
:100370000F920FB60F9211242F933F934F935F93D9
:100380006F937F938F939F93AF93BF93EF93FF935D
:1003900082E291E00E94CD02FF91EF91BF91AF9177
:1003A0009F918F917F916F915F914F913F912F918D
:1003B0000F900FBE0F901F90189580E090E015C031
:1003C000AC014F5F5F4F6DE6649F9001659F300DFC
:1003D000112429563E4F689FF001699FF00D1124AA
:1003E000E956FE4F35832483CA018330910544F3D7
:1003F0001092E3021092E20281E090E090932701D4
:10040000809326010895FB0120813181211531055A
:1004100019F4918380830895FC0135832483FB01C3
:10042000918380830895DC01ED91FC9111973097C1
:1004300009F4FFCF248135812D933C93CF0108959A
:10044000CF93DF9300D0CDB7DEB79A8389838091B5
:100450001A0190911B0106960E942E03892B59F4D4
:1004600089819A8190931B0180931A0161E070E069
:1004700006960E944E030F900F90DF91CF91089542
:10048000EF92FF920F931F93CF93DF9300D0CDB7DE
:10049000DEB77C018B01F8948091260190912701B1
:1004A000892B11F40E94DD018CE191E00E9413027E
:1004B0009A838983FC01F182E0821383028315828F
:1004C000148206960E942E030197E1F47894A0917D
:1004D0001A01B0911B01ED91FC91119712968D912B
:1004E0009C9113970995F8946CE171E080911A0141
:1004F00090911B010E94030288E291E00E94130286
:100500000E942002E981FA81369689819A81875971
:100510009F4F918B808BE981FA81918F808F68E268
:1005200071E080911A0190911B010E940302898160
:100530009A810E94200278940F900F90DF91CF91C2
:100540001F910F91FF90EF900895CF93DF93EC01EF
:10055000F89488819981019781F4BE016E5F7F4F85
:1005600080911A0190911B010E94030288E291E0A0
:100570000E9413020E9420020CC068E271E0809188
:100580001A0190911B010E94030281E090E099837F
:1005900088837894DF91CF910895CF93DF93F89477
:1005A000FC0122813381232B19F41182108211C0A6
:1005B000EC01609128017091290180911A019091BC
:1005C0001B010E940302CE0102960E9413020E94A8
:1005D00020027894DF91CF910895052E97FB1EF4A9
:1005E00000940E94040357FD07D00E940C0307FCEF
:1005F00003D04EF40C94040350954095309521950A
:100600003F4F4F4F5F4F089590958095709561953E
:100610007F4F8F4F9F4F0895A1E21A2EAA1BBB1B3D
:10062000FD010DC0AA1FBB1FEE1FFF1FA217B307BE
:10063000E407F50720F0A21BB30BE40BF50B661FD4
:10064000771F881F991F1A9469F760957095809598
:1006500090959B01AC01BD01CF010895DC012D9265
:100660003D924D925D926D927D928D929D92AD9252
:10067000BD92CD92DD92ED92FD920D931D93CD939F
:10068000DD93FF91EF918DB78D938EB78D938FB7DB
:100690008D93ED93FD93882799270994DC01CB0175
:1006A00081309105811D2D903D904D905D906D9014
:1006B0007D908D909D90AD90BD90CD90DD90ED9012
:1006C000FD900D911D91CD91DD91ED91FD910D90DC
:1006D000F894FEBF0FBEEDBFED91FD910994F89423
:0206E000FFCF4A
:1006E20051151801111E111B500B411B411F0940CE
:0E06F200511F511B500F411610152A01970180
:00000001FF
