S01500004C6162622033206661737420322E737265632B
S11300000C942E000C944B000C944B000C94610146
S11300100C944B000C944B000C944B000C948901F1
S11300200C944B000C944B000C944B000C944B0020
S11300300C944B000C944B000C944B000C944B0010
S11300400C944B000C944B000C944B000C944B0000
S11300500C944B000C944B000C944B0011241FBEC9
S1130060CFEFD4E0DEBFCDBF11E0A0E0B1E0E2E924
S1130070F6E002C005900D92A032B107D9F723E053
S1130080A0E2B1E001C01D92AD34B207E1F70E94D5
S113009029010C9447030C940000E4EEF0E0808105
S11300A08068808387EB8093E500E7EEF0E0808151
S11300B08F60808387E08093E60008956630710541
S11300C0B8F58A3048F4E82FF0E0EE0FFF1FE05057
S11300D0FF4F4081518102C040E050E060FF03C007
S11300E0AFE0B4E002C0A0EFB0E075956795FB0106
S11300F0E451FF4F20E030E018C0842F8F7090E06F
S11301000B2E02C0880F991F0A94E2F790819A235C
S1130110892B8083559547955595479555954795D2
S11301205595479535962F5F3F4F243031052CF375
S113013008958F929F92AF92BF92CF92DF92EF92E7
S1130140FF92CF93DF934B015C01EA0124E630E098
S113015040E050E00E94C5020F2EFAE0CF2ED12CD1
S1130160E12CF12CF02DA70196010E94C502822FEB
S1130170BE010E945E002196C501B401A70196014B
S11301800E94C502862FBE010E945E00DF91CF91BE
S1130190FF90EF90DF90CF90BF90AF909F908F90A3
S11301A00895C0E0D0E084E291E00E947D02809155
S11301B01A0190911B01892BB1F3209741F042E081
S11301C050E060E070E0CB010E94990008C042E07A
S11301D050E065E470E080E090E00E949900C095F2
S11301E0D09510921B0110921A01DDCF44E050E02B
S11301F060E570E080E090E00E94990000E010E08B
S1130200C0E0D0E002C0C0E0D0E080E291E00E9413
S11302107D022097C1F40115110549F044E050E036
S113022060E570E080E090E00E94990008C044E03E
S113023050E068E070E080E090E00E949900009552
S11302401095C1E0D0E01F9BE0CFC130D105E9F6A5
S1130250DACFE1E6F0E0C0E8C08310820E944D00EE
S1130260C5B9CDBBC0936C00A0E8B0E080EC8C9322
S1130270E1E8F0E098E190838C938DE0808382E460
S11302809FE09093890080938800109285001092DB
S1130290840082E080936F0084E291E00E947D02FA
S11302A080E291E00E947D0263E070E086EF90E0DE
S11302B00E94180262E070E081ED90E00E94180252
S11302C0FFCF1F920F920FB60F9211242F933F93DB
S11302D04F935F936F937F938F939F93AF93BF934A
S11302E0EF93FF931F9B04C080E291E00E94A5025C
S11302F0FF91EF91BF91AF919F918F917F916F91FA
S11303005F914F913F912F910F900FBE0F901F90CF
S113031018951F920F920FB60F9211242F933F93AB
S11303204F935F936F937F938F939F93AF93BF93F9
S1130330EF93FF9381E090E090931B0180931A0167
S113034084E291E00E94A502FF91EF91BF91AF91E9
S11303509F918F917F916F915F914F913F912F91D9
S11303600F900FBE0F901F90189580E090E015C07D
S1130370AC014F5F5F4F6DE6649F9001659F300D48
S1130380112427563E4F689FF001699FF00D1124F8
S1130390E756FE4F35832483CA018330910544F325
S11303A01092E5021092E40281E090E0909329011A
S11303B0809328010895FB012081318121153105A5
S11303C019F4918380830895FC0135832483FB0110
S11303D0918380830895DC01ED91FC91119730970E
S11303E009F4FFCF248135812D933C93CF010895E7
S11303F0CF93DF9300D0CDB7DEB79A838983809102
S11304001C0190911D0106960E940603892B59F444
S113041089819A8190931D0180931C0161E070E0B1
S113042006960E9426030F900F90DF91CF910895B6
S1130430EF92FF920F931F93CF93DF9300D0CDB72A
S1130440DEB77C018B01F8948091280190912901F9
S1130450892B11F40E94B5018EE191E00E94EB0119
S11304609A838983FC01F182E082138302831582DB
S1130470148206960E9406030197E1F47894A091F1
S11304801C01B0911D01ED91FC91119712968D9173
S11304909C9113970995F8946EE171E080911C0189
S11304A090911D010E94DB018AE291E00E94EB0120
S11304B00E94F801E981FA81369689819A818759E7
S11304C09F4F918B808BE981FA81918F808F6AE2B3
S11304D071E080911C0190911D010E94DB018981D2
S11304E09A810E94F80178940F900F90DF91CF9138
S11304F01F910F91FF90EF900895CF93DF93EC013C
S1130500F89488819981019781F4BE016E5F7F4FD1
S113051080911C0190911D010E94DB018AE291E00F
S11305200E94EB010E94F8010CC06AE271E0809124
S11305301C0190911D010E94DB0181E090E09983F0
S113054088837894DF91CF910895CF93DF93F894C3
S1130550FC0122813381232B19F41182108211C0F2
S1130560EC0160912A0170912B0180911C01909102
S11305701D010E94DB01CE0102960E94EB010E9444
S1130580F8017894DF91CF910895052E97FB1EF41E
S113059000940E94DC0257FD07D00E94E40207FC8D
S11305A003D04EF40C94DC0250954095309521957F
S11305B03F4F4F4F5F4F089590958095709561958B
S11305C07F4F8F4F9F4F0895A1E21A2EAA1BBB1B8A
S11305D0FD010DC0AA1FBB1FEE1FFF1FA217B3070B
S11305E0E407F50720F0A21BB30BE40BF50B661F21
S11305F0771F881F991F1A9469F7609570958095E5
S113060090959B01AC01BD01CF010895DC012D92B1
S11306103D924D925D926D927D928D929D92AD929E
S1130620BD92CD92DD92ED92FD920D931D93CD93EB
S1130630DD93FF91EF918DB78D938EB78D938FB727
S11306408D93ED93FD93882799270994DC01CB01C1
S113065081309105811D2D903D904D905D906D9060
S11306607D908D909D90AD90BD90CD90DD90ED905E
S1130670FD900D911D91CD91DD91ED91FD910D9028
S1130680F894FEBF0FBEEDBFED91FD910994F8946F
S1050690FFCF96
S113069251151801111E111B500B411B411F09401A
S11306A2511F511B500F4116101501002C019901C5
S9030000FC
