S01500004C6162622033206661737420322E737265632B
S11300000C942E000C944B000C944B000C94C402E2
S11300100C944B000C944B000C944B000C94EC028D
S11300200C944B000C944B000C944B000C944B0020
S11300300C944B000C944B000C944B000C944B0010
S11300400C944B000C944B000C944B000C944B0000
S11300500C944B000C944B000C944B0011241FBEC9
S1130060CFEFD4E0DEBFCDBF11E0A0E0B1E0E8E324
S1130070F7E002C005900D92A032B107D9F723E052
S1130080A0E2B1E001C01D92AD34B207E1F70E94D5
S11300907F010C949A030C940000E4EEF0E080815C
S11300A08068808387EB8093E500E7EEF0E0808151
S11300B08F60808387E08093E60008956630710541
S11300C0B8F58A3048F4E82FF0E0EE0FFF1FE05057
S11300D0FF4F4081518102C040E050E060FF03C007
S11300E0AFE0B4E002C0A0EFB0E075956795FB0106
S11300F0E451FF4F20E030E018C0842F8F7090E06F
S11301000B2E02C0880F991F0A94E2F790819A235C
S1130110892B8083559547955595479555954795D2
S11301205595479535962F5F3F4F243031052CF375
S113013008958F929F92AF92BF92CF92DF92EF92E7
S1130140FF92CF93DF934B015C01EA0124E630E098
S113015040E050E00E9418030F2EFAE0CF2ED12C7D
S1130160E12CF12CF02DA70196010E941803822F97
S1130170BE010E945E002196C501B401A70196014B
S11301800E941803862FBE010E945E00DF91CF916A
S1130190FF90EF90DF90CF90BF90AF909F908F90A3
S11301A00895C0E0D0E086E291E00E94D7018091FA
S11301B01A0190911B01892BA1F0209741F042E094
S11301C050E060E070E0CB010E94990008C042E07A
S11301D050E065E470E080E090E00E949900C095F2
S11301E0D09510921B0110921A01DDCF44E050E02B
S11301F060E570E080E090E00E94990000E010E08B
S1130200C0E0D0E002C0C0E0D0E082E291E00E9411
S1130210D7011F991AC02097C1F40115110549F09F
S113022044E050E060E570E080E090E00E949900D6
S113023008C044E050E068E070E080E090E00E9494
S1130240990000951095C1E0D0E01F9BDECFC1302E
S1130250D105D9F6D8CFCF92DF92EF92FF92CF9308
S1130260DF936B017C01C2E0D0E009C0C701B60195
S11302700E941803672B682B692B71F021969E014D
S11302800D2E000C440B550B2C153D054E055F053A
S11302906CF381E090E002C080E090E0DF91CF91C8
S11302A0FF90EF90DF90CF900895CF92DF92EF927E
S11302B0FF920F931F93CF93DF938C01C2E0D0E0A2
S11302C012C06E010D2E000CEE08FF08C701B60126
S11302D00E942B01892B31F040E050E0C701B601A8
S11302E00E9499002196C017D1075CF3DF91CF914A
S11302F01F910F91FF90EF90DF90CF900895E1E66A
S1130300F0E080E8808310820E944D0063E070E09A
S113031086EF90E00E943F0262E070E081ED90E0A1
S11303200E943F0280E197E20E945501FFCFFC0149
S113033015821482FB01208131812115310519F4C4
S1130340918380830895FC0135832483FB01918389
S113035080830895DC01ED91FC911197309709F4A5
S1130360FFCF248135812D933C93CF010895CF9302
S1130370DF9300D0CDB7DEB79A83898380911C01C7
S113038090911D0106960E945903892B59F4898185
S11303909A8190931D0180931C0161E070E00696A0
S11303A00E9479030F900F90DF91CF910895F894F4
S11303B0FC0120813181232B81F0BC016E5F7F4FD2
S11303C080911C0190911D010E9497018AE291E0A5
S11303D00E94AA010E94B70105C021E030E0FC019F
S11303E0318320837894089580E090E015C0AC01B7
S11303F04F5F5F4F6DE6649F9001659F300D112440
S113040027563E4F689FF001699FF00D1124E7566F
S1130410FE4F35832483CA018330910544F310923F
S1130420E5021092E40280E885B98DBB80936C00EC
S1130430A0E8B0E080EC8C93E1E8F0E098E19083F0
S11304408C938DE0808382E49FE090938900809375
S11304508800109285001092840082E080936F00DF
S113046086E291E00E94D70182E291E00E94D701E6
S113047081E090E090932101809320010895EF9210
S1130480FF920F931F93CF93DF9300D0CDB7DEB7C6
S11304907C018B01F8948091200190912101892B9A
S11304A011F40E94F4018EE191E00E94AA019A8362
S11304B08983FC01F182E082138302831582148212
S11304C006960E9459030197E1F47894A0911C01C7
S11304D0B0911D01ED91FC91119712968D919C9113
S11304E013970995F8946EE171E080911C01909145
S11304F01D010E9497018AE291E00E94AA010E94D4
S1130500B701E981FA81369689819A8187599F4F8B
S1130510918B808BE981FA81918F808F6AE271E0FF
S113052080911C0190911D010E94970189819A81FB
S11305300E94B70178940F900F90DF91CF911F9193
S11305400F91FF90EF900895CF93DF93F894FC01FF
S113055022813381232B19F41182108211C0EC0102
S113056060912A0170912B0180911C0190911D01D1
S11305700E949701CE0102960E94AA010E94B7012F
S11305807894DF91CF9108951F920F920FB60F9236
S113059011242F933F934F935F936F937F938F9384
S11305A09F93AF93BF93EF93FF931F9B04C082E28B
S11305B091E00E94A402FF91EF91BF91AF919F91AE
S11305C08F917F916F915F914F913F912F910F90F8
S11305D00FBE0F901F9018951F920F920FB60F9297
S11305E011242F933F934F935F936F937F938F9334
S11305F09F93AF93BF93EF93FF9381E090E0909329
S11306001B0180931A0186E291E00E94A402FF91EB
S1130610EF91BF91AF919F918F917F916F915F9176
S11306204F913F912F910F900FBE0F901F901895EF
S1130630052E97FB1EF400940E942F0357FD07D04C
S11306400E94370307FC03D04EF40C942F035095FB
S11306504095309521953F4F4F4F5F4F08959095AA
S11306608095709561957F4F8F4F9F4F0895A1E2BC
S11306701A2EAA1BBB1BFD010DC0AA1FBB1FEE1F18
S1130680FF1FA217B307E407F50720F0A21BB30B63
S1130690E40BF50B661F771F881F991F1A9469F7DF
S11306A060957095809590959B01AC01BD01CF013B
S11306B00895DC012D923D924D925D926D927D9252
S11306C08D929D92AD92BD92CD92DD92ED92FD926E
S11306D00D931D93CD93DD93FF91EF918DB78D9382
S11306E08EB78D938FB78D93ED93FD9388279927BC
S11306F00994DC01CB0181309105811D2D903D9041
S11307004D905D906D907D908D909D90AD90BD903D
S1130710CD90DD90ED90FD900D911D91CD91DD91E9
S1130720ED91FD910D90F894FEBF0FBEEDBFED91DC
S10B0730FD910994F894FFCF38
S113073851151801111E111B500B411B411F094073
S1130748511F511B500F4116101501002C0199011E
S9030000FC
